{
  "_format": "hh-sol-artifact-1",
  "contractName": "MetaToken",
  "sourceName": "contracts/MetaToken.sol",
  "abi": [
    {
      "inputs": [],
      "stateMutability": "nonpayable",
      "type": "constructor"
    },
    {
      "inputs": [],
      "name": "ApprovalCallerNotOwnerNorApproved",
      "type": "error"
    },
    {
      "inputs": [],
      "name": "ApprovalQueryForNonexistentToken",
      "type": "error"
    },
    {
      "inputs": [],
      "name": "BalanceQueryForZeroAddress",
      "type": "error"
    },
    {
      "inputs": [],
      "name": "MintERC2309QuantityExceedsLimit",
      "type": "error"
    },
    {
      "inputs": [],
      "name": "MintToZeroAddress",
      "type": "error"
    },
    {
      "inputs": [],
      "name": "MintZeroQuantity",
      "type": "error"
    },
    {
      "inputs": [],
      "name": "NotCompatibleWithSpotMints",
      "type": "error"
    },
    {
      "inputs": [],
      "name": "OwnerQueryForNonexistentToken",
      "type": "error"
    },
    {
      "inputs": [],
      "name": "OwnershipNotInitializedForExtraData",
      "type": "error"
    },
    {
      "inputs": [],
      "name": "SequentialMintExceedsLimit",
      "type": "error"
    },
    {
      "inputs": [],
      "name": "SequentialUpToTooSmall",
      "type": "error"
    },
    {
      "inputs": [],
      "name": "SpotMintTokenIdTooSmall",
      "type": "error"
    },
    {
      "inputs": [],
      "name": "TokenAlreadyExists",
      "type": "error"
    },
    {
      "inputs": [],
      "name": "TransferCallerNotOwnerNorApproved",
      "type": "error"
    },
    {
      "inputs": [],
      "name": "TransferFromIncorrectOwner",
      "type": "error"
    },
    {
      "inputs": [],
      "name": "TransferToNonERC721ReceiverImplementer",
      "type": "error"
    },
    {
      "inputs": [],
      "name": "TransferToZeroAddress",
      "type": "error"
    },
    {
      "inputs": [],
      "name": "URIQueryForNonexistentToken",
      "type": "error"
    },
    {
      "anonymous": false,
      "inputs": [
        {
          "indexed": true,
          "internalType": "address",
          "name": "owner",
          "type": "address"
        },
        {
          "indexed": true,
          "internalType": "address",
          "name": "approved",
          "type": "address"
        },
        {
          "indexed": true,
          "internalType": "uint256",
          "name": "tokenId",
          "type": "uint256"
        }
      ],
      "name": "Approval",
      "type": "event"
    },
    {
      "anonymous": false,
      "inputs": [
        {
          "indexed": true,
          "internalType": "address",
          "name": "owner",
          "type": "address"
        },
        {
          "indexed": true,
          "internalType": "address",
          "name": "operator",
          "type": "address"
        },
        {
          "indexed": false,
          "internalType": "bool",
          "name": "approved",
          "type": "bool"
        }
      ],
      "name": "ApprovalForAll",
      "type": "event"
    },
    {
      "anonymous": false,
      "inputs": [
        {
          "indexed": true,
          "internalType": "uint256",
          "name": "fromTokenId",
          "type": "uint256"
        },
        {
          "indexed": false,
          "internalType": "uint256",
          "name": "toTokenId",
          "type": "uint256"
        },
        {
          "indexed": true,
          "internalType": "address",
          "name": "from",
          "type": "address"
        },
        {
          "indexed": true,
          "internalType": "address",
          "name": "to",
          "type": "address"
        }
      ],
      "name": "ConsecutiveTransfer",
      "type": "event"
    },
    {
      "anonymous": false,
      "inputs": [
        {
          "indexed": true,
          "internalType": "address",
          "name": "from",
          "type": "address"
        },
        {
          "indexed": true,
          "internalType": "address",
          "name": "to",
          "type": "address"
        },
        {
          "indexed": true,
          "internalType": "uint256",
          "name": "tokenId",
          "type": "uint256"
        }
      ],
      "name": "Transfer",
      "type": "event"
    },
    {
      "inputs": [
        {
          "internalType": "address",
          "name": "to",
          "type": "address"
        },
        {
          "internalType": "uint256",
          "name": "tokenId",
          "type": "uint256"
        }
      ],
      "name": "approve",
      "outputs": [],
      "stateMutability": "payable",
      "type": "function"
    },
    {
      "inputs": [
        {
          "internalType": "address",
          "name": "owner",
          "type": "address"
        }
      ],
      "name": "balanceOf",
      "outputs": [
        {
          "internalType": "uint256",
          "name": "",
          "type": "uint256"
        }
      ],
      "stateMutability": "view",
      "type": "function"
    },
    {
      "inputs": [
        {
          "internalType": "string[]",
          "name": "tokenURIs",
          "type": "string[]"
        },
        {
          "internalType": "string[]",
          "name": "prompts",
          "type": "string[]"
        }
      ],
      "name": "createNFTs",
      "outputs": [],
      "stateMutability": "nonpayable",
      "type": "function"
    },
    {
      "inputs": [
        {
          "internalType": "uint256",
          "name": "tokenId",
          "type": "uint256"
        }
      ],
      "name": "getApproved",
      "outputs": [
        {
          "internalType": "address",
          "name": "",
          "type": "address"
        }
      ],
      "stateMutability": "view",
      "type": "function"
    },
    {
      "inputs": [
        {
          "internalType": "address",
          "name": "owner",
          "type": "address"
        },
        {
          "internalType": "address",
          "name": "operator",
          "type": "address"
        }
      ],
      "name": "isApprovedForAll",
      "outputs": [
        {
          "internalType": "bool",
          "name": "",
          "type": "bool"
        }
      ],
      "stateMutability": "view",
      "type": "function"
    },
    {
      "inputs": [],
      "name": "name",
      "outputs": [
        {
          "internalType": "string",
          "name": "",
          "type": "string"
        }
      ],
      "stateMutability": "view",
      "type": "function"
    },
    {
      "inputs": [
        {
          "internalType": "uint256",
          "name": "tokenId",
          "type": "uint256"
        }
      ],
      "name": "ownerOf",
      "outputs": [
        {
          "internalType": "address",
          "name": "",
          "type": "address"
        }
      ],
      "stateMutability": "view",
      "type": "function"
    },
    {
      "inputs": [
        {
          "internalType": "uint256",
          "name": "tokenId",
          "type": "uint256"
        }
      ],
      "name": "promptDescription",
      "outputs": [
        {
          "internalType": "string",
          "name": "",
          "type": "string"
        }
      ],
      "stateMutability": "view",
      "type": "function"
    },
    {
      "inputs": [
        {
          "internalType": "address",
          "name": "from",
          "type": "address"
        },
        {
          "internalType": "address",
          "name": "to",
          "type": "address"
        },
        {
          "internalType": "uint256",
          "name": "tokenId",
          "type": "uint256"
        }
      ],
      "name": "safeTransferFrom",
      "outputs": [],
      "stateMutability": "payable",
      "type": "function"
    },
    {
      "inputs": [
        {
          "internalType": "address",
          "name": "from",
          "type": "address"
        },
        {
          "internalType": "address",
          "name": "to",
          "type": "address"
        },
        {
          "internalType": "uint256",
          "name": "tokenId",
          "type": "uint256"
        },
        {
          "internalType": "bytes",
          "name": "_data",
          "type": "bytes"
        }
      ],
      "name": "safeTransferFrom",
      "outputs": [],
      "stateMutability": "payable",
      "type": "function"
    },
    {
      "inputs": [
        {
          "internalType": "address",
          "name": "operator",
          "type": "address"
        },
        {
          "internalType": "bool",
          "name": "approved",
          "type": "bool"
        }
      ],
      "name": "setApprovalForAll",
      "outputs": [],
      "stateMutability": "nonpayable",
      "type": "function"
    },
    {
      "inputs": [
        {
          "internalType": "bytes4",
          "name": "interfaceId",
          "type": "bytes4"
        }
      ],
      "name": "supportsInterface",
      "outputs": [
        {
          "internalType": "bool",
          "name": "",
          "type": "bool"
        }
      ],
      "stateMutability": "view",
      "type": "function"
    },
    {
      "inputs": [],
      "name": "symbol",
      "outputs": [
        {
          "internalType": "string",
          "name": "",
          "type": "string"
        }
      ],
      "stateMutability": "view",
      "type": "function"
    },
    {
      "inputs": [
        {
          "internalType": "uint256",
          "name": "tokenId",
          "type": "uint256"
        }
      ],
      "name": "tokenURI",
      "outputs": [
        {
          "internalType": "string",
          "name": "",
          "type": "string"
        }
      ],
      "stateMutability": "view",
      "type": "function"
    },
    {
      "inputs": [],
      "name": "totalSupply",
      "outputs": [
        {
          "internalType": "uint256",
          "name": "result",
          "type": "uint256"
        }
      ],
      "stateMutability": "view",
      "type": "function"
    },
    {
      "inputs": [
        {
          "internalType": "address",
          "name": "from",
          "type": "address"
        },
        {
          "internalType": "address",
          "name": "to",
          "type": "address"
        },
        {
          "internalType": "uint256",
          "name": "tokenId",
          "type": "uint256"
        }
      ],
      "name": "transferFrom",
      "outputs": [],
      "stateMutability": "payable",
      "type": "function"
    }
  ],
  "bytecode": "0x60806040523480156200001157600080fd5b506040518060400160405280600981526020017f4d657461546f6b656e00000000000000000000000000000000000000000000008152506040518060400160405280600981526020017f4d657461546f6b656e000000000000000000000000000000000000000000000081525081600290816200008f9190620003f2565b508060039081620000a19190620003f2565b50620000b26200014160201b60201c565b600081905550620000c86200014160201b60201c565b620000d86200014660201b60201c565b1015620000f857620000f763fed8210f60e01b6200016e60201b60201c565b5b505033600960006101000a81548173ffffffffffffffffffffffffffffffffffffffff021916908373ffffffffffffffffffffffffffffffffffffffff160217905550620004d9565b600090565b60007fffffffffffffffffffffffffffffffffffffffffffffffffffffffffffffffff905090565b8060005260046000fd5b600081519050919050565b7f4e487b7100000000000000000000000000000000000000000000000000000000600052604160045260246000fd5b7f4e487b7100000000000000000000000000000000000000000000000000000000600052602260045260246000fd5b60006002820490506001821680620001fa57607f821691505b60208210810362000210576200020f620001b2565b5b50919050565b60008190508160005260206000209050919050565b60006020601f8301049050919050565b600082821b905092915050565b6000600883026200027a7fffffffffffffffffffffffffffffffffffffffffffffffffffffffffffffffff826200023b565b6200028686836200023b565b95508019841693508086168417925050509392505050565b6000819050919050565b6000819050919050565b6000620002d3620002cd620002c7846200029e565b620002a8565b6200029e565b9050919050565b6000819050919050565b620002ef83620002b2565b62000307620002fe82620002da565b84845462000248565b825550505050565b600090565b6200031e6200030f565b6200032b818484620002e4565b505050565b5b8181101562000353576200034760008262000314565b60018101905062000331565b5050565b601f821115620003a2576200036c8162000216565b62000377846200022b565b8101602085101562000387578190505b6200039f62000396856200022b565b83018262000330565b50505b505050565b600082821c905092915050565b6000620003c760001984600802620003a7565b1980831691505092915050565b6000620003e28383620003b4565b9150826002028217905092915050565b620003fd8262000178565b67ffffffffffffffff81111562000419576200041862000183565b5b620004258254620001e1565b6200043282828562000357565b600060209050601f8311600181146200046a576000841562000455578287015190505b620004618582620003d4565b865550620004d1565b601f1984166200047a8662000216565b60005b82811015620004a4578489015182556001820191506020850194506020810190506200047d565b86831015620004c45784890151620004c0601f891682620003b4565b8355505b6001600288020188555050505b505050505050565b61249d80620004e96000396000f3fe6080604052600436106100f35760003560e01c806370a082311161008a578063a4f409b111610059578063a4f409b114610327578063b88d4fde14610350578063c87b56dd1461036c578063e985e9c5146103a9576100f3565b806370a08231146102595780638e5a86381461029657806395d89b41146102d3578063a22cb465146102fe576100f3565b806318160ddd116100c657806318160ddd146101b957806323b872dd146101e457806342842e0e146102005780636352211e1461021c576100f3565b806301ffc9a7146100f857806306fdde0314610135578063081812fc14610160578063095ea7b31461019d575b600080fd5b34801561010457600080fd5b5061011f600480360381019061011a919061175a565b6103e6565b60405161012c91906117a2565b60405180910390f35b34801561014157600080fd5b5061014a610478565b604051610157919061184d565b60405180910390f35b34801561016c57600080fd5b50610187600480360381019061018291906118a5565b61050a565b6040516101949190611913565b60405180910390f35b6101b760048036038101906101b2919061195a565b610568565b005b3480156101c557600080fd5b506101ce610578565b6040516101db91906119a9565b60405180910390f35b6101fe60048036038101906101f991906119c4565b6105c5565b005b61021a600480360381019061021591906119c4565b610886565b005b34801561022857600080fd5b50610243600480360381019061023e91906118a5565b6108a6565b6040516102509190611913565b60405180910390f35b34801561026557600080fd5b50610280600480360381019061027b9190611a17565b6108b8565b60405161028d91906119a9565b60405180910390f35b3480156102a257600080fd5b506102bd60048036038101906102b891906118a5565b61094f565b6040516102ca919061184d565b60405180910390f35b3480156102df57600080fd5b506102e86109f4565b6040516102f5919061184d565b60405180910390f35b34801561030a57600080fd5b5061032560048036038101906103209190611a70565b610a86565b005b34801561033357600080fd5b5061034e60048036038101906103499190611ccb565b610b91565b005b61036a60048036038101906103659190611de4565b610d2c565b005b34801561037857600080fd5b50610393600480360381019061038e91906118a5565b610d7e565b6040516103a0919061184d565b60405180910390f35b3480156103b557600080fd5b506103d060048036038101906103cb9190611e67565b610e6b565b6040516103dd91906117a2565b60405180910390f35b60006301ffc9a760e01b827bffffffffffffffffffffffffffffffffffffffffffffffffffffffff1916148061044157506380ac58cd60e01b827bffffffffffffffffffffffffffffffffffffffffffffffffffffffff1916145b806104715750635b5e139f60e01b827bffffffffffffffffffffffffffffffffffffffffffffffffffffffff1916145b9050919050565b60606002805461048790611ed6565b80601f01602080910402602001604051908101604052809291908181526020018280546104b390611ed6565b80156105005780601f106104d557610100808354040283529160200191610500565b820191906000526020600020905b8154815290600101906020018083116104e357829003601f168201915b5050505050905090565b600061051582610eff565b61052a5761052963cf4700e460e01b610fab565b5b6006600083815260200190815260200160002060000160009054906101000a900473ffffffffffffffffffffffffffffffffffffffff169050919050565b61057482826001610fb5565b5050565b60006105826110e4565b600154600054030390507fffffffffffffffffffffffffffffffffffffffffffffffffffffffffffffffff6105b56110e9565b146105c257600854810190505b90565b60006105d082611111565b905073ffffffffffffffffffffffffffffffffffffffff8473ffffffffffffffffffffffffffffffffffffffff161693508373ffffffffffffffffffffffffffffffffffffffff168173ffffffffffffffffffffffffffffffffffffffff16146106455761064463a114810060e01b610fab565b5b6000806106518461122a565b915091506106678187610662611251565b611259565b6106925761067c86610677611251565b610e6b565b610691576106906359c896be60e01b610fab565b5b5b61069f868686600161129d565b80156106aa57600082555b600560008773ffffffffffffffffffffffffffffffffffffffff1673ffffffffffffffffffffffffffffffffffffffff168152602001908152602001600020600081546001900391905081905550600560008673ffffffffffffffffffffffffffffffffffffffff1673ffffffffffffffffffffffffffffffffffffffff1681526020019081526020016000206000815460010191905081905550610778856107548888876112a3565b7c0200000000000000000000000000000000000000000000000000000000176112cb565b600460008681526020019081526020016000208190555060007c02000000000000000000000000000000000000000000000000000000008416036107fe57600060018501905060006004600083815260200190815260200160002054036107fc5760005481146107fb578360046000838152602001908152602001600020819055505b5b505b600073ffffffffffffffffffffffffffffffffffffffff8673ffffffffffffffffffffffffffffffffffffffff161690508481887fddf252ad1be2c89b69c2b068fc378daa952ba7f163c4a11628f55a4df523b3ef600080a4600081036108705761086f63ea553b3460e01b610fab565b5b61087d87878760016112f6565b50505050505050565b6108a183838360405180602001604052806000815250610d2c565b505050565b60006108b182611111565b9050919050565b60008073ffffffffffffffffffffffffffffffffffffffff168273ffffffffffffffffffffffffffffffffffffffff16036108fe576108fd638f4eb60460e01b610fab565b5b67ffffffffffffffff600560008473ffffffffffffffffffffffffffffffffffffffff1673ffffffffffffffffffffffffffffffffffffffff16815260200190815260200160002054169050919050565b6060600a6000838152602001908152602001600020805461096f90611ed6565b80601f016020809104026020016040519081016040528092919081815260200182805461099b90611ed6565b80156109e85780601f106109bd576101008083540402835291602001916109e8565b820191906000526020600020905b8154815290600101906020018083116109cb57829003601f168201915b50505050509050919050565b606060038054610a0390611ed6565b80601f0160208091040260200160405190810160405280929190818152602001828054610a2f90611ed6565b8015610a7c5780601f10610a5157610100808354040283529160200191610a7c565b820191906000526020600020905b815481529060010190602001808311610a5f57829003601f168201915b5050505050905090565b8060076000610a93611251565b73ffffffffffffffffffffffffffffffffffffffff1673ffffffffffffffffffffffffffffffffffffffff16815260200190815260200160002060008473ffffffffffffffffffffffffffffffffffffffff1673ffffffffffffffffffffffffffffffffffffffff16815260200190815260200160002060006101000a81548160ff0219169083151502179055508173ffffffffffffffffffffffffffffffffffffffff16610b40611251565b73ffffffffffffffffffffffffffffffffffffffff167f17307eab39ab6107e8899845ad3d59bd9653f200f220920489ca2b5937696c3183604051610b8591906117a2565b60405180910390a35050565b600960009054906101000a900473ffffffffffffffffffffffffffffffffffffffff1673ffffffffffffffffffffffffffffffffffffffff163373ffffffffffffffffffffffffffffffffffffffff1614610c21576040517f08c379a0000000000000000000000000000000000000000000000000000000008152600401610c1890611f53565b60405180910390fd5b8051825114610c65576040517f08c379a0000000000000000000000000000000000000000000000000000000008152600401610c5c90611fbf565b60405180910390fd5b6000610c6f6112fc565b9050600083519050610c813382611345565b60005b81811015610d2557838181518110610c9f57610c9e611fdf565b5b6020026020010151600a60008386610cb7919061203d565b81526020019081526020016000209081610cd1919061221d565b50848181518110610ce557610ce4611fdf565b5b6020026020010151600b60008386610cfd919061203d565b81526020019081526020016000209081610d17919061221d565b508080600101915050610c84565b5050505050565b610d378484846105c5565b60008373ffffffffffffffffffffffffffffffffffffffff163b14610d7857610d6284848484611363565b610d7757610d7663d1a57ed660e01b610fab565b5b5b50505050565b6060610d8982610eff565b610dc8576040517f08c379a0000000000000000000000000000000000000000000000000000000008152600401610dbf9061233b565b60405180910390fd5b600b60008381526020019081526020016000208054610de690611ed6565b80601f0160208091040260200160405190810160405280929190818152602001828054610e1290611ed6565b8015610e5f5780601f10610e3457610100808354040283529160200191610e5f565b820191906000526020600020905b815481529060010190602001808311610e4257829003601f168201915b50505050509050919050565b6000600760008473ffffffffffffffffffffffffffffffffffffffff1673ffffffffffffffffffffffffffffffffffffffff16815260200190815260200160002060008373ffffffffffffffffffffffffffffffffffffffff1673ffffffffffffffffffffffffffffffffffffffff16815260200190815260200160002060009054906101000a900460ff16905092915050565b600081610f0a6110e4565b11610fa557610f176110e9565b821115610f4157610f3a6004600084815260200190815260200160002054611492565b9050610fa6565b600054821015610fa45760005b6000600460008581526020019081526020016000205491508103610f7d5782610f769061235b565b9250610f4e565b60007c01000000000000000000000000000000000000000000000000000000008216149150505b5b5b919050565b8060005260046000fd5b6000610fc0836108a6565b905081801561100257508073ffffffffffffffffffffffffffffffffffffffff16610fe9611251565b73ffffffffffffffffffffffffffffffffffffffff1614155b1561102e5761101881611013611251565b610e6b565b61102d5761102c63cfb3b94260e01b610fab565b5b5b836006600085815260200190815260200160002060000160006101000a81548173ffffffffffffffffffffffffffffffffffffffff021916908373ffffffffffffffffffffffffffffffffffffffff160217905550828473ffffffffffffffffffffffffffffffffffffffff168273ffffffffffffffffffffffffffffffffffffffff167f8c5be1e5ebec7d5bd14f71427d1e84f3dd0314c0f7b2291e5b200ac8c7c3b92560405160405180910390a450505050565b600090565b60007fffffffffffffffffffffffffffffffffffffffffffffffffffffffffffffffff905090565b60008161111c6110e4565b11611214576004600083815260200190815260200160002054905061113f6110e9565b8211156111645761114f81611492565b6112255761116363df2d9b4260e01b610fab565b5b600081036111eb5760005482106111865761118563df2d9b4260e01b610fab565b5b5b600460008360019003935083815260200190815260200160002054905060008103156111e65760007c010000000000000000000000000000000000000000000000000000000082160315611225576111e563df2d9b4260e01b610fab565b5b611187565b60007c010000000000000000000000000000000000000000000000000000000082160315611225575b61122463df2d9b4260e01b610fab565b5b919050565b60008060006006600085815260200190815260200160002090508092508254915050915091565b600033905090565b600073ffffffffffffffffffffffffffffffffffffffff8316925073ffffffffffffffffffffffffffffffffffffffff821691508382148383141790509392505050565b50505050565b60008060e883901c905060e86112ba8686846114d3565b62ffffff16901b9150509392505050565b600073ffffffffffffffffffffffffffffffffffffffff83169250814260a01b178317905092915050565b50505050565b60006113066110e4565b6000540390507fffffffffffffffffffffffffffffffffffffffffffffffffffffffffffffffff6113356110e9565b1461134257600854810190505b90565b61135f8282604051806020016040528060008152506114dc565b5050565b60008373ffffffffffffffffffffffffffffffffffffffff1663150b7a02611389611251565b8786866040518563ffffffff1660e01b81526004016113ab94939291906123d9565b6020604051808303816000875af19250505080156113e757506040513d601f19601f820116820180604052508101906113e4919061243a565b60015b61143f573d8060008114611417576040519150601f19603f3d011682016040523d82523d6000602084013e61141c565b606091505b5060008151036114375761143663d1a57ed660e01b610fab565b5b805181602001fd5b63150b7a0260e01b7bffffffffffffffffffffffffffffffffffffffffffffffffffffffff1916817bffffffffffffffffffffffffffffffffffffffffffffffffffffffff191614915050949350505050565b60007c0100000000000000000000000000000000000000000000000000000000821673ffffffffffffffffffffffffffffffffffffffff8316119050919050565b60009392505050565b6114e68383611558565b60008373ffffffffffffffffffffffffffffffffffffffff163b1461155357600080549050600083820390505b6115266000868380600101945086611363565b61153b5761153a63d1a57ed660e01b610fab565b5b81811061151357816000541461155057600080fd5b50505b505050565b600080549050600082036115775761157663b562e8dd60e01b610fab565b5b611584600084838561129d565b6115a48361159560008660006112a3565b61159e856116de565b176112cb565b6004600083815260200190815260200160002081905550600160406001901b178202600560008573ffffffffffffffffffffffffffffffffffffffff1673ffffffffffffffffffffffffffffffffffffffff16815260200190815260200160002060008282540192505081905550600073ffffffffffffffffffffffffffffffffffffffff8473ffffffffffffffffffffffffffffffffffffffff161690506000810361165c5761165b632e07630060e01b610fab565b5b6000838301905060008390506116706110e9565b60018303111561168b5761168a6381647e3a60e01b610fab565b5b5b808360007fddf252ad1be2c89b69c2b068fc378daa952ba7f163c4a11628f55a4df523b3ef600080a481816001019150810361168c57816000819055505050506116d960008483856112f6565b505050565b60006001821460e11b9050919050565b6000604051905090565b600080fd5b600080fd5b60007fffffffff0000000000000000000000000000000000000000000000000000000082169050919050565b61173781611702565b811461174257600080fd5b50565b6000813590506117548161172e565b92915050565b6000602082840312156117705761176f6116f8565b5b600061177e84828501611745565b91505092915050565b60008115159050919050565b61179c81611787565b82525050565b60006020820190506117b76000830184611793565b92915050565b600081519050919050565b600082825260208201905092915050565b60005b838110156117f75780820151818401526020810190506117dc565b60008484015250505050565b6000601f19601f8301169050919050565b600061181f826117bd565b61182981856117c8565b93506118398185602086016117d9565b61184281611803565b840191505092915050565b600060208201905081810360008301526118678184611814565b905092915050565b6000819050919050565b6118828161186f565b811461188d57600080fd5b50565b60008135905061189f81611879565b92915050565b6000602082840312156118bb576118ba6116f8565b5b60006118c984828501611890565b91505092915050565b600073ffffffffffffffffffffffffffffffffffffffff82169050919050565b60006118fd826118d2565b9050919050565b61190d816118f2565b82525050565b60006020820190506119286000830184611904565b92915050565b611937816118f2565b811461194257600080fd5b50565b6000813590506119548161192e565b92915050565b60008060408385031215611971576119706116f8565b5b600061197f85828601611945565b925050602061199085828601611890565b9150509250929050565b6119a38161186f565b82525050565b60006020820190506119be600083018461199a565b92915050565b6000806000606084860312156119dd576119dc6116f8565b5b60006119eb86828701611945565b93505060206119fc86828701611945565b9250506040611a0d86828701611890565b9150509250925092565b600060208284031215611a2d57611a2c6116f8565b5b6000611a3b84828501611945565b91505092915050565b611a4d81611787565b8114611a5857600080fd5b50565b600081359050611a6a81611a44565b92915050565b60008060408385031215611a8757611a866116f8565b5b6000611a9585828601611945565b9250506020611aa685828601611a5b565b9150509250929050565b600080fd5b7f4e487b7100000000000000000000000000000000000000000000000000000000600052604160045260246000fd5b611aed82611803565b810181811067ffffffffffffffff82111715611b0c57611b0b611ab5565b5b80604052505050565b6000611b1f6116ee565b9050611b2b8282611ae4565b919050565b600067ffffffffffffffff821115611b4b57611b4a611ab5565b5b602082029050602081019050919050565b600080fd5b600080fd5b600067ffffffffffffffff821115611b8157611b80611ab5565b5b611b8a82611803565b9050602081019050919050565b82818337600083830152505050565b6000611bb9611bb484611b66565b611b15565b905082815260208101848484011115611bd557611bd4611b61565b5b611be0848285611b97565b509392505050565b600082601f830112611bfd57611bfc611ab0565b5b8135611c0d848260208601611ba6565b91505092915050565b6000611c29611c2484611b30565b611b15565b90508083825260208201905060208402830185811115611c4c57611c4b611b5c565b5b835b81811015611c9357803567ffffffffffffffff811115611c7157611c70611ab0565b5b808601611c7e8982611be8565b85526020850194505050602081019050611c4e565b5050509392505050565b600082601f830112611cb257611cb1611ab0565b5b8135611cc2848260208601611c16565b91505092915050565b60008060408385031215611ce257611ce16116f8565b5b600083013567ffffffffffffffff811115611d0057611cff6116fd565b5b611d0c85828601611c9d565b925050602083013567ffffffffffffffff811115611d2d57611d2c6116fd565b5b611d3985828601611c9d565b9150509250929050565b600067ffffffffffffffff821115611d5e57611d5d611ab5565b5b611d6782611803565b9050602081019050919050565b6000611d87611d8284611d43565b611b15565b905082815260208101848484011115611da357611da2611b61565b5b611dae848285611b97565b509392505050565b600082601f830112611dcb57611dca611ab0565b5b8135611ddb848260208601611d74565b91505092915050565b60008060008060808587031215611dfe57611dfd6116f8565b5b6000611e0c87828801611945565b9450506020611e1d87828801611945565b9350506040611e2e87828801611890565b925050606085013567ffffffffffffffff811115611e4f57611e4e6116fd565b5b611e5b87828801611db6565b91505092959194509250565b60008060408385031215611e7e57611e7d6116f8565b5b6000611e8c85828601611945565b9250506020611e9d85828601611945565b9150509250929050565b7f4e487b7100000000000000000000000000000000000000000000000000000000600052602260045260246000fd5b60006002820490506001821680611eee57607f821691505b602082108103611f0157611f00611ea7565b5b50919050565b7f4f776e61626c653a2063616c6c6572206973206e6f7420746865206f776e6572600082015250565b6000611f3d6020836117c8565b9150611f4882611f07565b602082019050919050565b60006020820190508181036000830152611f6c81611f30565b9050919050565b7f4d69736d61746368656420696e70757473000000000000000000000000000000600082015250565b6000611fa96011836117c8565b9150611fb482611f73565b602082019050919050565b60006020820190508181036000830152611fd881611f9c565b9050919050565b7f4e487b7100000000000000000000000000000000000000000000000000000000600052603260045260246000fd5b7f4e487b7100000000000000000000000000000000000000000000000000000000600052601160045260246000fd5b60006120488261186f565b91506120538361186f565b925082820190508082111561206b5761206a61200e565b5b92915050565b60008190508160005260206000209050919050565b60006020601f8301049050919050565b600082821b905092915050565b6000600883026120d37fffffffffffffffffffffffffffffffffffffffffffffffffffffffffffffffff82612096565b6120dd8683612096565b95508019841693508086168417925050509392505050565b6000819050919050565b600061211a6121156121108461186f565b6120f5565b61186f565b9050919050565b6000819050919050565b612134836120ff565b61214861214082612121565b8484546120a3565b825550505050565b600090565b61215d612150565b61216881848461212b565b505050565b5b8181101561218c57612181600082612155565b60018101905061216e565b5050565b601f8211156121d1576121a281612071565b6121ab84612086565b810160208510156121ba578190505b6121ce6121c685612086565b83018261216d565b50505b505050565b600082821c905092915050565b60006121f4600019846008026121d6565b1980831691505092915050565b600061220d83836121e3565b9150826002028217905092915050565b612226826117bd565b67ffffffffffffffff81111561223f5761223e611ab5565b5b6122498254611ed6565b612254828285612190565b600060209050601f8311600181146122875760008415612275578287015190505b61227f8582612201565b8655506122e7565b601f19841661229586612071565b60005b828110156122bd57848901518255600182019150602085019450602081019050612298565b868310156122da57848901516122d6601f8916826121e3565b8355505b6001600288020188555050505b505050505050565b7f55524920717565727920666f72206e6f6e6578697374656e7420746f6b656e00600082015250565b6000612325601f836117c8565b9150612330826122ef565b602082019050919050565b6000602082019050818103600083015261235481612318565b9050919050565b60006123668261186f565b9150600082036123795761237861200e565b5b600182039050919050565b600081519050919050565b600082825260208201905092915050565b60006123ab82612384565b6123b5818561238f565b93506123c58185602086016117d9565b6123ce81611803565b840191505092915050565b60006080820190506123ee6000830187611904565b6123fb6020830186611904565b612408604083018561199a565b818103606083015261241a81846123a0565b905095945050505050565b6000815190506124348161172e565b92915050565b6000602082840312156124505761244f6116f8565b5b600061245e84828501612425565b9150509291505056fea2646970667358221220c4667046a310419732e45f2a6ef12510b1773e7d0173dea66412dd10c83aa2af64736f6c63430008180033",
  "linkReferences": {},
  "deployedLinkReferences": {}
}